{
  "contractName": "Innovatract",
  "abi": [
    {
      "inputs": [
        {
          "internalType": "uint256",
          "name": "",
          "type": "uint256"
        }
      ],
      "name": "UserCount",
      "outputs": [
        {
          "internalType": "uint256",
          "name": "StakeAmount",
          "type": "uint256"
        },
        {
          "internalType": "uint256",
          "name": "GoalDuration",
          "type": "uint256"
        },
        {
          "internalType": "string",
          "name": "GoalDiscription",
          "type": "string"
        },
        {
          "internalType": "string",
          "name": "GoalName",
          "type": "string"
        },
        {
          "internalType": "uint256",
          "name": "CheckInterval",
          "type": "uint256"
        },
        {
          "internalType": "uint256",
          "name": "StartDate",
          "type": "uint256"
        },
        {
          "internalType": "uint256",
          "name": "EndDate",
          "type": "uint256"
        }
      ],
      "stateMutability": "view",
      "type": "function",
      "constant": true
    },
    {
      "inputs": [],
      "name": "UserId",
      "outputs": [
        {
          "internalType": "uint256",
          "name": "",
          "type": "uint256"
        }
      ],
      "stateMutability": "view",
      "type": "function",
      "constant": true
    },
    {
      "inputs": [
        {
          "internalType": "uint256",
          "name": "_StakeAmount",
          "type": "uint256"
        },
        {
          "internalType": "string",
          "name": "_GoalsDiscrption",
          "type": "string"
        },
        {
          "internalType": "uint256",
          "name": "_GoalDuration",
          "type": "uint256"
        },
        {
          "internalType": "uint256",
          "name": "_StartDate",
          "type": "uint256"
        },
        {
          "internalType": "uint256",
          "name": "_EndDate",
          "type": "uint256"
        },
        {
          "internalType": "uint256",
          "name": "_CheckInterval",
          "type": "uint256"
        },
        {
          "internalType": "string",
          "name": "_GoalName",
          "type": "string"
        }
      ],
      "name": "createUser",
      "outputs": [],
      "stateMutability": "nonpayable",
      "type": "function"
    },
    {
      "inputs": [],
      "name": "deposit",
      "outputs": [],
      "stateMutability": "payable",
      "type": "function",
      "payable": true
    },
    {
      "inputs": [],
      "name": "balance",
      "outputs": [
        {
          "internalType": "uint256",
          "name": "",
          "type": "uint256"
        }
      ],
      "stateMutability": "view",
      "type": "function",
      "constant": true
    },
    {
      "inputs": [
        {
          "internalType": "address",
          "name": "owner",
          "type": "address"
        },
        {
          "internalType": "uint256",
          "name": "StakeAmount",
          "type": "uint256"
        }
      ],
      "name": "sendEther",
      "outputs": [],
      "stateMutability": "nonpayable",
      "type": "function"
    }
  ],
  "bytecode": "0x608060405234801561001057600080fd5b50610a32806100206000396000f3fe6080604052600436106100555760003560e01c8063026c3bfe1461005a57806377279c0014610085578063807942e1146100ae578063b69ef8a8146100f1578063c1756a2c1461011c578063d0e30db014610145575b600080fd5b34801561006657600080fd5b5061006f61014f565b60405161007c91906106a2565b60405180910390f35b34801561009157600080fd5b506100ac60048036038101906100a7919061058c565b610155565b005b3480156100ba57600080fd5b506100d560048036038101906100d09190610563565b610238565b6040516100e897969594939291906106bd565b60405180910390f35b3480156100fd57600080fd5b5061010661038a565b60405161011391906106a2565b60405180910390f35b34801561012857600080fd5b50610143600480360381019061013e9190610527565b610392565b005b61014d6103f0565b005b60015481565b600080600060015481526020019081526020016000209050878160000181905550858160010181905550868160020190805190602001906101979291906103f2565b50818160030190805190602001906101b09291906103f2565b50828160040181905550848160050181905550838160060181905550600160008154809291906101df906108e7565b919050555080600001548160070160003373ffffffffffffffffffffffffffffffffffffffff1673ffffffffffffffffffffffffffffffffffffffff168152602001908152602001600020819055505050505050505050565b600060205280600052604060002060009150905080600001549080600101549080600201805461026790610884565b80601f016020809104026020016040519081016040528092919081815260200182805461029390610884565b80156102e05780601f106102b5576101008083540402835291602001916102e0565b820191906000526020600020905b8154815290600101906020018083116102c357829003601f168201915b5050505050908060030180546102f590610884565b80601f016020809104026020016040519081016040528092919081815260200182805461032190610884565b801561036e5780601f106103435761010080835404028352916020019161036e565b820191906000526020600020905b81548152906001019060200180831161035157829003601f168201915b5050505050908060040154908060050154908060060154905087565b600047905090565b8173ffffffffffffffffffffffffffffffffffffffff166108fc670de0b6b3a7640000836103c091906107ac565b9081150290604051600060405180830381858888f193505050501580156103eb573d6000803e3d6000fd5b505050565b565b8280546103fe90610884565b90600052602060002090601f0160209004810192826104205760008555610467565b82601f1061043957805160ff1916838001178555610467565b82800160010185558215610467579182015b8281111561046657825182559160200191906001019061044b565b5b5090506104749190610478565b5090565b5b80821115610491576000816000905550600101610479565b5090565b60006104a86104a38461075f565b61073a565b9050828152602081018484840111156104c057600080fd5b6104cb848285610842565b509392505050565b6000813590506104e2816109ce565b92915050565b600082601f8301126104f957600080fd5b8135610509848260208601610495565b91505092915050565b600081359050610521816109e5565b92915050565b6000806040838503121561053a57600080fd5b6000610548858286016104d3565b925050602061055985828601610512565b9150509250929050565b60006020828403121561057557600080fd5b600061058384828501610512565b91505092915050565b600080600080600080600060e0888a0312156105a757600080fd5b60006105b58a828b01610512565b975050602088013567ffffffffffffffff8111156105d257600080fd5b6105de8a828b016104e8565b96505060406105ef8a828b01610512565b95505060606106008a828b01610512565b94505060806106118a828b01610512565b93505060a06106228a828b01610512565b92505060c088013567ffffffffffffffff81111561063f57600080fd5b61064b8a828b016104e8565b91505092959891949750929550565b600061066582610790565b61066f818561079b565b935061067f818560208601610851565b610688816109bd565b840191505092915050565b61069c81610838565b82525050565b60006020820190506106b76000830184610693565b92915050565b600060e0820190506106d2600083018a610693565b6106df6020830189610693565b81810360408301526106f1818861065a565b90508181036060830152610705818761065a565b90506107146080830186610693565b61072160a0830185610693565b61072e60c0830184610693565b98975050505050505050565b6000610744610755565b905061075082826108b6565b919050565b6000604051905090565b600067ffffffffffffffff82111561077a5761077961098e565b5b610783826109bd565b9050602081019050919050565b600081519050919050565b600082825260208201905092915050565b60006107b782610838565b91506107c283610838565b9250817fffffffffffffffffffffffffffffffffffffffffffffffffffffffffffffffff04831182151516156107fb576107fa610930565b5b828202905092915050565b600061081182610818565b9050919050565b600073ffffffffffffffffffffffffffffffffffffffff82169050919050565b6000819050919050565b82818337600083830152505050565b60005b8381101561086f578082015181840152602081019050610854565b8381111561087e576000848401525b50505050565b6000600282049050600182168061089c57607f821691505b602082108114156108b0576108af61095f565b5b50919050565b6108bf826109bd565b810181811067ffffffffffffffff821117156108de576108dd61098e565b5b80604052505050565b60006108f282610838565b91507fffffffffffffffffffffffffffffffffffffffffffffffffffffffffffffffff82141561092557610924610930565b5b600182019050919050565b7f4e487b7100000000000000000000000000000000000000000000000000000000600052601160045260246000fd5b7f4e487b7100000000000000000000000000000000000000000000000000000000600052602260045260246000fd5b7f4e487b7100000000000000000000000000000000000000000000000000000000600052604160045260246000fd5b6000601f19601f8301169050919050565b6109d781610806565b81146109e257600080fd5b50565b6109ee81610838565b81146109f957600080fd5b5056fea2646970667358221220ceae6036e0c1963947edd0723094891d22a724e29939c0894a2c30bd566e4ffa64736f6c63430008010033",
  "immutableReferences": {},
  "source": "// SPDX-License-Identifier: GPL-3.0\n\npragma solidity ^0.8.1;\n\ncontract Innovatract{\n    \n    struct  User{\n        uint StakeAmount;\n        uint GoalDuration;\n        string GoalDiscription;\n        string GoalName;\n        uint CheckInterval;\n        uint StartDate;\n        uint EndDate;\n        mapping (address => uint) AmountStake;\n    \n        \n        //stake Amount should be constant\n    }\n    enum GoalAcheived {Inprogress,Acheived,UnAcheived }\n    \n     mapping(uint => User ) public UserCount;\n     \n     uint public UserId;\n   \n    function createUser(\n    uint _StakeAmount, string memory _GoalsDiscrption, uint \n    _GoalDuration,uint _StartDate, uint _EndDate,\n    uint _CheckInterval, string memory _GoalName) public {\n        User storage user = UserCount[UserId];\n        user.StakeAmount = _StakeAmount;\n        user.GoalDuration = _GoalDuration;\n        user.GoalDiscription = _GoalsDiscrption;\n        user.GoalName = _GoalName;\n        user.CheckInterval = _CheckInterval;\n        user.StartDate = _StartDate;\n        user.EndDate = _EndDate;\n        UserId++;\n        user.AmountStake[msg.sender] = user.StakeAmount;\n        \n    }\n     function deposit() external payable {\n    }\n    \n    function balance() external view returns(uint){\n        return address(this).balance;\n    }\n    \n    function sendEther(address owner, uint StakeAmount) external {\n    \n        //convert StakeAmount to ether from wei\n        owner.transfer(StakeAmount * 1e18);\n    }\n}",
  "sourcePath": "/Users/jpmiller/Documents/programs/blockchain/Innovatract/contracts/Innovatract.sol",
  "compiler": {
    "name": "solc",
    "version": "0.8.1+commit.df193b15.Emscripten.clang"
  },
  "schemaVersion": "3.4.3",
  "updatedAt": "2021-08-13T05:38:38.681Z",
  "networkType": "ethereum",
  "devdoc": {
    "kind": "dev",
    "methods": {},
    "version": 1
  },
  "userdoc": {
    "kind": "user",
    "methods": {},
    "version": 1
  }
}