{
  "contractName": "Innovatract",
  "abi": [
    {
      "inputs": [
        {
          "internalType": "uint256",
          "name": "",
          "type": "uint256"
        }
      ],
      "name": "UserCount",
      "outputs": [
        {
          "internalType": "uint256",
          "name": "StakeAmount",
          "type": "uint256"
        },
        {
          "internalType": "uint256",
          "name": "GoalDuration",
          "type": "uint256"
        },
        {
          "internalType": "string",
          "name": "GoalDiscription",
          "type": "string"
        },
        {
          "internalType": "string",
          "name": "GoalName",
          "type": "string"
        },
        {
          "internalType": "uint256",
          "name": "CheckInterval",
          "type": "uint256"
        },
        {
          "internalType": "uint256",
          "name": "StartDate",
          "type": "uint256"
        },
        {
          "internalType": "uint256",
          "name": "EndDate",
          "type": "uint256"
        }
      ],
      "stateMutability": "view",
      "type": "function",
      "constant": true
    },
    {
      "inputs": [],
      "name": "UserId",
      "outputs": [
        {
          "internalType": "uint256",
          "name": "",
          "type": "uint256"
        }
      ],
      "stateMutability": "view",
      "type": "function",
      "constant": true
    },
    {
      "inputs": [
        {
          "internalType": "uint256",
          "name": "_StakeAmount",
          "type": "uint256"
        },
        {
          "internalType": "string",
          "name": "_GoalsDiscrption",
          "type": "string"
        },
        {
          "internalType": "uint256",
          "name": "_GoalDuration",
          "type": "uint256"
        },
        {
          "internalType": "uint256",
          "name": "_StartDate",
          "type": "uint256"
        },
        {
          "internalType": "uint256",
          "name": "_EndDate",
          "type": "uint256"
        },
        {
          "internalType": "uint256",
          "name": "_CheckInterval",
          "type": "uint256"
        },
        {
          "internalType": "string",
          "name": "_GoalName",
          "type": "string"
        }
      ],
      "name": "createUser",
      "outputs": [],
      "stateMutability": "nonpayable",
      "type": "function"
    }
  ],
  "bytecode": "0x608060405234801561001057600080fd5b5061083d806100206000396000f3fe608060405234801561001057600080fd5b50600436106100415760003560e01c8063026c3bfe1461004657806377279c0014610064578063807942e114610080575b600080fd5b61004e6100b6565b60405161005b9190610550565b60405180910390f35b61007e6004803603810190610079919061043a565b6100bc565b005b61009a60048036038101906100959190610411565b61019f565b6040516100ad979695949392919061056b565b60405180910390f35b60015481565b600080600060015481526020019081526020016000209050878160000181905550858160010181905550868160020190805190602001906100fe9291906102f1565b50818160030190805190602001906101179291906102f1565b508281600401819055508481600501819055508381600601819055506001600081548092919061014690610709565b919050555080600001548160070160003373ffffffffffffffffffffffffffffffffffffffff1673ffffffffffffffffffffffffffffffffffffffff168152602001908152602001600020819055505050505050505050565b60006020528060005260406000206000915090508060000154908060010154908060020180546101ce906106a6565b80601f01602080910402602001604051908101604052809291908181526020018280546101fa906106a6565b80156102475780601f1061021c57610100808354040283529160200191610247565b820191906000526020600020905b81548152906001019060200180831161022a57829003601f168201915b50505050509080600301805461025c906106a6565b80601f0160208091040260200160405190810160405280929190818152602001828054610288906106a6565b80156102d55780601f106102aa576101008083540402835291602001916102d5565b820191906000526020600020905b8154815290600101906020018083116102b857829003601f168201915b5050505050908060040154908060050154908060060154905087565b8280546102fd906106a6565b90600052602060002090601f01602090048101928261031f5760008555610366565b82601f1061033857805160ff1916838001178555610366565b82800160010185558215610366579182015b8281111561036557825182559160200191906001019061034a565b5b5090506103739190610377565b5090565b5b80821115610390576000816000905550600101610378565b5090565b60006103a76103a28461060d565b6105e8565b9050828152602081018484840111156103bf57600080fd5b6103ca848285610664565b509392505050565b600082601f8301126103e357600080fd5b81356103f3848260208601610394565b91505092915050565b60008135905061040b816107f0565b92915050565b60006020828403121561042357600080fd5b6000610431848285016103fc565b91505092915050565b600080600080600080600060e0888a03121561045557600080fd5b60006104638a828b016103fc565b975050602088013567ffffffffffffffff81111561048057600080fd5b61048c8a828b016103d2565b965050604061049d8a828b016103fc565b95505060606104ae8a828b016103fc565b94505060806104bf8a828b016103fc565b93505060a06104d08a828b016103fc565b92505060c088013567ffffffffffffffff8111156104ed57600080fd5b6104f98a828b016103d2565b91505092959891949750929550565b60006105138261063e565b61051d8185610649565b935061052d818560208601610673565b610536816107df565b840191505092915050565b61054a8161065a565b82525050565b60006020820190506105656000830184610541565b92915050565b600060e082019050610580600083018a610541565b61058d6020830189610541565b818103604083015261059f8188610508565b905081810360608301526105b38187610508565b90506105c26080830186610541565b6105cf60a0830185610541565b6105dc60c0830184610541565b98975050505050505050565b60006105f2610603565b90506105fe82826106d8565b919050565b6000604051905090565b600067ffffffffffffffff821115610628576106276107b0565b5b610631826107df565b9050602081019050919050565b600081519050919050565b600082825260208201905092915050565b6000819050919050565b82818337600083830152505050565b60005b83811015610691578082015181840152602081019050610676565b838111156106a0576000848401525b50505050565b600060028204905060018216806106be57607f821691505b602082108114156106d2576106d1610781565b5b50919050565b6106e1826107df565b810181811067ffffffffffffffff82111715610700576106ff6107b0565b5b80604052505050565b60006107148261065a565b91507fffffffffffffffffffffffffffffffffffffffffffffffffffffffffffffffff82141561074757610746610752565b5b600182019050919050565b7f4e487b7100000000000000000000000000000000000000000000000000000000600052601160045260246000fd5b7f4e487b7100000000000000000000000000000000000000000000000000000000600052602260045260246000fd5b7f4e487b7100000000000000000000000000000000000000000000000000000000600052604160045260246000fd5b6000601f19601f8301169050919050565b6107f98161065a565b811461080457600080fd5b5056fea2646970667358221220e0ddc0c40f9d7a12ad72e5b299741c7ea2f3721c20b6b56b65dbe5e2d8aa9bee64736f6c63430008010033",
  "immutableReferences": {},
  "source": "// SPDX-License-Identifier: GPL-3.0\n\npragma solidity ^0.8.1;\n\ncontract Innovatract{\n    \n    struct  User{\n        uint StakeAmount;\n        uint GoalDuration;\n        string GoalDiscription;\n        string GoalName;\n        uint CheckInterval;\n        uint StartDate;\n        uint EndDate;\n        mapping (address => uint) AmountStake;\n    \n        \n        //stake Amount should be constant\n    }\n    enum GoalAcheived {Inprogress,Acheived,UnAcheived }\n    \n     mapping(uint => User ) public UserCount;\n     \n     uint public UserId;\n   \n    function createUser(\n    uint _StakeAmount, string memory _GoalsDiscrption, uint \n    _GoalDuration,uint _StartDate, uint _EndDate,\n    uint _CheckInterval, string memory _GoalName) public {\n        User storage user = UserCount[UserId];\n        user.StakeAmount = _StakeAmount;\n        user.GoalDuration = _GoalDuration;\n        user.GoalDiscription = _GoalsDiscrption;\n        user.GoalName = _GoalName;\n        user.CheckInterval = _CheckInterval;\n        user.StartDate = _StartDate;\n        user.EndDate = _EndDate;\n        UserId++;\n        user.AmountStake[msg.sender] = user.StakeAmount;\n       \n         \n        \n        \n    }\n}",
  "sourcePath": "/Users/jpmiller/Documents/programs/blockchain/Innovatract/contracts/Innovatract.sol",
  "compiler": {
    "name": "solc",
    "version": "0.8.1+commit.df193b15.Emscripten.clang"
  },
  "schemaVersion": "3.4.2",
  "updatedAt": "2021-08-12T14:35:39.557Z",
  "networkType": "ethereum",
  "devdoc": {
    "kind": "dev",
    "methods": {},
    "version": 1
  },
  "userdoc": {
    "kind": "user",
    "methods": {},
    "version": 1
  }
}